{
  "contractName": "Main",
  "abi": [
    {
      "constant": true,
      "inputs": [],
      "name": "admin",
      "outputs": [
        {
          "name": "",
          "type": "address"
        }
      ],
      "payable": false,
      "stateMutability": "view",
      "type": "function"
    },
    {
      "inputs": [],
      "payable": false,
      "stateMutability": "nonpayable",
      "type": "constructor"
    },
    {
      "constant": false,
      "inputs": [
        {
          "name": "_session",
          "type": "address"
        }
      ],
      "name": "addSession",
      "outputs": [],
      "payable": false,
      "stateMutability": "nonpayable",
      "type": "function"
    },
    {
      "constant": false,
      "inputs": [
        {
          "name": "_fullName",
          "type": "string"
        },
        {
          "name": "_email",
          "type": "string"
        }
      ],
      "name": "register",
      "outputs": [],
      "payable": false,
      "stateMutability": "nonpayable",
      "type": "function"
    },
    {
      "constant": false,
      "inputs": [
        {
          "name": "_fullName",
          "type": "string"
        },
        {
          "name": "_email",
          "type": "string"
        }
      ],
      "name": "updateParticipant",
      "outputs": [],
      "payable": false,
      "stateMutability": "nonpayable",
      "type": "function"
    },
    {
      "constant": true,
      "inputs": [
        {
          "name": "_account",
          "type": "address"
        }
      ],
      "name": "checkRegisterAccount",
      "outputs": [
        {
          "name": "",
          "type": "bool"
        }
      ],
      "payable": false,
      "stateMutability": "view",
      "type": "function"
    },
    {
      "constant": false,
      "inputs": [
        {
          "name": "_account",
          "type": "address"
        }
      ],
      "name": "updateSessionNumber",
      "outputs": [],
      "payable": false,
      "stateMutability": "nonpayable",
      "type": "function"
    },
    {
      "constant": false,
      "inputs": [
        {
          "name": "_account",
          "type": "address"
        },
        {
          "name": "_deviation",
          "type": "uint256"
        }
      ],
      "name": "updateDeviation",
      "outputs": [],
      "payable": false,
      "stateMutability": "nonpayable",
      "type": "function"
    },
    {
      "constant": true,
      "inputs": [
        {
          "name": "_account",
          "type": "address"
        }
      ],
      "name": "getDeviation",
      "outputs": [
        {
          "name": "",
          "type": "uint256"
        }
      ],
      "payable": false,
      "stateMutability": "view",
      "type": "function"
    },
    {
      "constant": true,
      "inputs": [
        {
          "name": "_account",
          "type": "address"
        }
      ],
      "name": "getSessionNumber",
      "outputs": [
        {
          "name": "",
          "type": "uint256"
        }
      ],
      "payable": false,
      "stateMutability": "view",
      "type": "function"
    },
    {
      "constant": true,
      "inputs": [
        {
          "name": "_account",
          "type": "address"
        }
      ],
      "name": "participants",
      "outputs": [
        {
          "components": [
            {
              "name": "account",
              "type": "address"
            },
            {
              "name": "fullname",
              "type": "string"
            },
            {
              "name": "email",
              "type": "string"
            },
            {
              "name": "nSessions",
              "type": "uint256"
            },
            {
              "name": "deviation",
              "type": "uint256"
            }
          ],
          "name": "",
          "type": "tuple"
        }
      ],
      "payable": false,
      "stateMutability": "view",
      "type": "function"
    },
    {
      "constant": true,
      "inputs": [],
      "name": "nParticipants",
      "outputs": [
        {
          "name": "",
          "type": "uint256"
        }
      ],
      "payable": false,
      "stateMutability": "view",
      "type": "function"
    },
    {
      "constant": true,
      "inputs": [
        {
          "name": "_index",
          "type": "uint256"
        }
      ],
      "name": "iParticipants",
      "outputs": [
        {
          "name": "",
          "type": "address"
        }
      ],
      "payable": false,
      "stateMutability": "view",
      "type": "function"
    },
    {
      "constant": true,
      "inputs": [],
      "name": "nSessions",
      "outputs": [
        {
          "name": "",
          "type": "uint256"
        }
      ],
      "payable": false,
      "stateMutability": "view",
      "type": "function"
    },
    {
      "constant": true,
      "inputs": [
        {
          "name": "_index",
          "type": "uint256"
        }
      ],
      "name": "sessions",
      "outputs": [
        {
          "name": "",
          "type": "address"
        }
      ],
      "payable": false,
      "stateMutability": "view",
      "type": "function"
    }
  ],
  "bytecode": "0x608060405234801561001057600080fd5b5033600260006101000a81548173ffffffffffffffffffffffffffffffffffffffff021916908373ffffffffffffffffffffffffffffffffffffffff160217905550611624806100616000396000f3006080604052600436106100d0576000357c0100000000000000000000000000000000000000000000000000000000900463ffffffff16806309e69ede146100d55780633ad86db2146101125780633d202a0d1461014f5780633ffbd47f146101785780634534ede0146101a1578063454eed7d146101de57806383c4b7a31461020957806395c0371714610246578063a33a08b91461026f578063a3b9c9e5146102ac578063b63bc3b4146102e9578063d5c54bc414610314578063f390dd861461033d578063f851a44014610366575b600080fd5b3480156100e157600080fd5b506100fc60048036036100f79190810190611286565b610391565b6040516101099190611496565b60405180910390f35b34801561011e57600080fd5b5061013960048036036101349190810190611286565b61056f565b604051610146919061147b565b60405180910390f35b34801561015b57600080fd5b5061017660048036036101719190810190611286565b610619565b005b34801561018457600080fd5b5061019f600480360361019a91908101906112eb565b610744565b005b3480156101ad57600080fd5b506101c860048036036101c39190810190611286565b6108ba565b6040516101d591906114b8565b60405180910390f35b3480156101ea57600080fd5b506101f3610a96565b60405161020091906114b8565b60405180910390f35b34801561021557600080fd5b50610230600480360361022b9190810190611357565b610aa3565b60405161023d9190611460565b60405180910390f35b34801561025257600080fd5b5061026d600480360361026891908101906112eb565b610af9565b005b34801561027b57600080fd5b5061029660048036036102919190810190611286565b610be7565b6040516102a391906114b8565b60405180910390f35b3480156102b857600080fd5b506102d360048036036102ce9190810190611357565b610dc3565b6040516102e09190611460565b60405180910390f35b3480156102f557600080fd5b506102fe610e1f565b60405161030b91906114b8565b60405180910390f35b34801561032057600080fd5b5061033b600480360361033691908101906112af565b610e2b565b005b34801561034957600080fd5b50610364600480360361035f9190810190611286565b610f4d565b005b34801561037257600080fd5b5061037b610fb6565b6040516103889190611460565b60405180910390f35b61039961109d565b6103a161109d565b6103aa83610fdc565b60a060405190810160405290816000820160009054906101000a900473ffffffffffffffffffffffffffffffffffffffff1673ffffffffffffffffffffffffffffffffffffffff1673ffffffffffffffffffffffffffffffffffffffff168152602001600182018054600181600116156101000203166002900480601f0160208091040260200160405190810160405280929190818152602001828054600181600116156101000203166002900480156104a55780601f1061047a576101008083540402835291602001916104a5565b820191906000526020600020905b81548152906001019060200180831161048857829003601f168201915b50505050508152602001600282018054600181600116156101000203166002900480601f0160208091040260200160405190810160405280929190818152602001828054600181600116156101000203166002900480156105475780601f1061051c57610100808354040283529160200191610547565b820191906000526020600020905b81548152906001019060200180831161052a57829003601f168201915b5050505050815260200160038201548152602001600482015481525050905080915050919050565b600080600090505b60008054905081101561060e5760008181548110151561059357fe5b906000526020600020906005020160000160009054906101000a900473ffffffffffffffffffffffffffffffffffffffff1673ffffffffffffffffffffffffffffffffffffffff168373ffffffffffffffffffffffffffffffffffffffff1614156106015760019150610613565b8080600101915050610577565b600091505b50919050565b60008060008090505b6001805490508110156106e6573373ffffffffffffffffffffffffffffffffffffffff1660018281548110151561065557fe5b9060005260206000200160009054906101000a900473ffffffffffffffffffffffffffffffffffffffff1673ffffffffffffffffffffffffffffffffffffffff1614156106d9576001818154811015156106ab57fe5b9060005260206000200160009054906101000a900473ffffffffffffffffffffffffffffffffffffffff1691505b8080600101915050610622565b3373ffffffffffffffffffffffffffffffffffffffff168273ffffffffffffffffffffffffffffffffffffffff1614151561072057600080fd5b61072984610fdc565b92506001836003016000828254019250508190555050505050565b600061074f33610fdc565b90503373ffffffffffffffffffffffffffffffffffffffff168160000160009054906101000a900473ffffffffffffffffffffffffffffffffffffffff1673ffffffffffffffffffffffffffffffffffffffff16141515156107b057600080fd5b600060a0604051908101604052803373ffffffffffffffffffffffffffffffffffffffff1681526020018581526020018481526020016000815260200160008152509080600181540180825580915050906001820390600052602060002090600502016000909192909190915060008201518160000160006101000a81548173ffffffffffffffffffffffffffffffffffffffff021916908373ffffffffffffffffffffffffffffffffffffffff16021790555060208201518160010190805190602001906108809291906110e3565b50604082015181600201908051906020019061089d9291906110e3565b506060820151816003015560808201518160040155505050505050565b60006108c461109d565b6108cd83610fdc565b60a060405190810160405290816000820160009054906101000a900473ffffffffffffffffffffffffffffffffffffffff1673ffffffffffffffffffffffffffffffffffffffff1673ffffffffffffffffffffffffffffffffffffffff168152602001600182018054600181600116156101000203166002900480601f0160208091040260200160405190810160405280929190818152602001828054600181600116156101000203166002900480156109c85780601f1061099d576101008083540402835291602001916109c8565b820191906000526020600020905b8154815290600101906020018083116109ab57829003601f168201915b50505050508152602001600282018054600181600116156101000203166002900480601f016020809104026020016040519081016040528092919081815260200182805460018160011615610100020316600290048015610a6a5780601f10610a3f57610100808354040283529160200191610a6a565b820191906000526020600020905b815481529060010190602001808311610a4d57829003601f168201915b505050505081526020016003820154815260200160048201548152505090508060600151915050919050565b6000600180549050905090565b600060018054905082101515610ab857600080fd5b600182815481101515610ac757fe5b9060005260206000200160009054906101000a900473ffffffffffffffffffffffffffffffffffffffff169050919050565b600080600091505b600080549050821015610be157600082815481101515610b1d57fe5b906000526020600020906005020160000160009054906101000a900473ffffffffffffffffffffffffffffffffffffffff1673ffffffffffffffffffffffffffffffffffffffff163373ffffffffffffffffffffffffffffffffffffffff161415610bd457600082815481101515610b9157fe5b9060005260206000209060050201905082816002019080519060200190610bb9929190611163565b5083816001019080519060200190610bd2929190611163565b505b8180600101925050610b01565b50505050565b6000610bf161109d565b610bfa83610fdc565b60a060405190810160405290816000820160009054906101000a900473ffffffffffffffffffffffffffffffffffffffff1673ffffffffffffffffffffffffffffffffffffffff1673ffffffffffffffffffffffffffffffffffffffff168152602001600182018054600181600116156101000203166002900480601f016020809104026020016040519081016040528092919081815260200182805460018160011615610100020316600290048015610cf55780601f10610cca57610100808354040283529160200191610cf5565b820191906000526020600020905b815481529060010190602001808311610cd857829003601f168201915b50505050508152602001600282018054600181600116156101000203166002900480601f016020809104026020016040519081016040528092919081815260200182805460018160011615610100020316600290048015610d975780601f10610d6c57610100808354040283529160200191610d97565b820191906000526020600020905b815481529060010190602001808311610d7a57829003601f168201915b505050505081526020016003820154815260200160048201548152505090508060800151915050919050565b6000808054905082101515610dd757600080fd5b600082815481101515610de657fe5b906000526020600020906005020160000160009054906101000a900473ffffffffffffffffffffffffffffffffffffffff169050919050565b60008080549050905090565b60008060008090505b600180549050811015610ef8573373ffffffffffffffffffffffffffffffffffffffff16600182815481101515610e6757fe5b9060005260206000200160009054906101000a900473ffffffffffffffffffffffffffffffffffffffff1673ffffffffffffffffffffffffffffffffffffffff161415610eeb57600181815481101515610ebd57fe5b9060005260206000200160009054906101000a900473ffffffffffffffffffffffffffffffffffffffff1691505b8080600101915050610e34565b3373ffffffffffffffffffffffffffffffffffffffff168273ffffffffffffffffffffffffffffffffffffffff16141515610f3257600080fd5b610f3b85610fdc565b92508383600401819055505050505050565b60018190806001815401808255809150509060018203906000526020600020016000909192909190916101000a81548173ffffffffffffffffffffffffffffffffffffffff021916908373ffffffffffffffffffffffffffffffffffffffff1602179055505050565b600260009054906101000a900473ffffffffffffffffffffffffffffffffffffffff1681565b600080600090505b6000805490508110156110965760008181548110151561100057fe5b906000526020600020906005020160000160009054906101000a900473ffffffffffffffffffffffffffffffffffffffff1673ffffffffffffffffffffffffffffffffffffffff168373ffffffffffffffffffffffffffffffffffffffff1614156110895760008181548110151561107457fe5b90600052602060002090600502019150611097565b8080600101915050610fe4565b5b50919050565b60a060405190810160405280600073ffffffffffffffffffffffffffffffffffffffff168152602001606081526020016060815260200160008152602001600081525090565b828054600181600116156101000203166002900490600052602060002090601f016020900481019282601f1061112457805160ff1916838001178555611152565b82800160010185558215611152579182015b82811115611151578251825591602001919060010190611136565b5b50905061115f91906111e3565b5090565b828054600181600116156101000203166002900490600052602060002090601f016020900481019282601f106111a457805160ff19168380011785556111d2565b828001600101855582156111d2579182015b828111156111d15782518255916020019190600101906111b6565b5b5090506111df91906111e3565b5090565b61120591905b808211156112015760008160009055506001016111e9565b5090565b90565b6000611214823561156d565b905092915050565b600082601f830112151561122f57600080fd5b813561124261123d82611500565b6114d3565b9150808252602083016020830185838301111561125e57600080fd5b611269838284611597565b50505092915050565b600061127e823561158d565b905092915050565b60006020828403121561129857600080fd5b60006112a684828501611208565b91505092915050565b600080604083850312156112c257600080fd5b60006112d085828601611208565b92505060206112e185828601611272565b9150509250929050565b600080604083850312156112fe57600080fd5b600083013567ffffffffffffffff81111561131857600080fd5b6113248582860161121c565b925050602083013567ffffffffffffffff81111561134157600080fd5b61134d8582860161121c565b9150509250929050565b60006020828403121561136957600080fd5b600061137784828501611272565b91505092915050565b61138981611537565b82525050565b61139881611557565b82525050565b60006113a98261152c565b8084526113bd8160208601602086016115a6565b6113c6816115d9565b602085010191505092915050565b600060a0830160008301516113ec6000860182611380565b5060208301518482036020860152611404828261139e565b9150506040830151848203604086015261141e828261139e565b91505060608301516114336060860182611451565b5060808301516114466080860182611451565b508091505092915050565b61145a81611563565b82525050565b60006020820190506114756000830184611380565b92915050565b6000602082019050611490600083018461138f565b92915050565b600060208201905081810360008301526114b081846113d4565b905092915050565b60006020820190506114cd6000830184611451565b92915050565b6000604051905081810181811067ffffffffffffffff821117156114f657600080fd5b8060405250919050565b600067ffffffffffffffff82111561151757600080fd5b601f19601f8301169050602081019050919050565b600081519050919050565b600073ffffffffffffffffffffffffffffffffffffffff82169050919050565b60008115159050919050565b6000819050919050565b600073ffffffffffffffffffffffffffffffffffffffff82169050919050565b6000819050919050565b82818337600083830152505050565b60005b838110156115c45780820151818401526020810190506115a9565b838111156115d3576000848401525b50505050565b6000601f19601f83011690509190505600a265627a7a72305820204911ad70ccabbd4dde3e1f38c927f13a451ea89aa2c38f546df1ec8688418c6c6578706572696d656e74616cf50037",
  "source": "pragma solidity ^0.4.17;\npragma experimental ABIEncoderV2;\n\ncontract Main {\n\n    // Structure to hold details of Bidder\n    struct IParticipant{ \n        address account;\n        string fullname;\n        string email;\n        uint256 nSessions;\n        uint256 deviation;\n    }\n    \n    IParticipant[] private registerParticipants;\n    address[] private pricingSessions; \n    address public admin;\n\n    modifier onlyAdmin(){\n        require(msg.sender == admin);\n        _;\n    }\n\n    modifier onlySession(){\n        address pricingSession;\n        for(uint256 i = 0; i < pricingSessions.length; i++){\n            if(pricingSessions[i] == msg.sender)\n                pricingSession = pricingSessions[i];\n        }\n        require(pricingSession == msg.sender);\n        _;\n    }\n\n    function Main() public {\n        admin = msg.sender;\n    }\n\n\n    // Add a Session Contract address into Main Contract. Use to link Session with Main\n    function addSession(address _session) public {\n        pricingSessions.push(_session);\n    }\n\n    function register(string _fullName, string _email) public {     \n        IParticipant storage participant = getParticipant(msg.sender);  \n        require(participant.account != msg.sender);\n            \n        registerParticipants.push(IParticipant(msg.sender, _fullName, _email, 0, 0));\n    }\n\n    function updateParticipant(string _fullName, string _email) public{\n        for(uint256 i = 0; i < registerParticipants.length; i++)\n        {\n            if(msg.sender == registerParticipants[i].account)\n            {\n                IParticipant storage participant = registerParticipants[i];\n                participant.email = _email;\n                participant.fullname = _fullName;\n            }\n        }        \n    }\n\n    function checkRegisterAccount(address _account) view public returns(bool){\n        for(uint256 i = 0; i < registerParticipants.length; i++)\n        {\n            if(_account == registerParticipants[i].account)\n                return true;\n        }\n        return false;\n    }\n\n    function updateSessionNumber(address _account) onlySession public {\n        IParticipant storage participant = getParticipant(_account);\n        participant.nSessions += 1;\n    }\n\n    function updateDeviation(address _account, uint256 _deviation) onlySession public {\n        IParticipant storage participant = getParticipant(_account);\n        participant.deviation = _deviation;\n    }\n\n    function getParticipant(address _account) internal returns (IParticipant storage){\n        for(uint256 i = 0; i < registerParticipants.length; i++)\n        {\n            if(_account == registerParticipants[i].account)\n                return registerParticipants[i];\n        }\n    }\n\n     // View functions\n    function getDeviation(address _account) view public returns (uint256){\n         IParticipant memory participant = getParticipant(_account);\n         return participant.deviation;\n    }\n\n    function getSessionNumber(address _account) view public returns(uint256){\n        IParticipant memory participant = getParticipant(_account);\n         return participant.nSessions;\n    }\n\n    function participants (address _account) view public returns(IParticipant){\n        IParticipant memory participant = getParticipant(_account);\n        return participant;\n    }\n\n    function nParticipants() view public returns (uint256){\n        return registerParticipants.length;\n    }\n\n    function iParticipants (uint256 _index) view public returns(address){\n        require(_index < registerParticipants.length);\n       \n        return registerParticipants[_index].account;       \n    }\n\n    function nSessions() view public returns (uint256){\n        return pricingSessions.length;\n    }\n\n    function sessions(uint256 _index) view public returns(address){\n        require(_index < pricingSessions.length);\n        return pricingSessions[_index];\n    } \n}\n",
  "sourcePath": "D:\\Learning\\Blockchain-Funix\\_FunixPricingChain\\truffle\\contracts\\Main.sol",
  "compiler": {
    "name": "solc",
    "version": "0.4.26+commit.4563c3fc.Emscripten.clang"
  },
  "schemaVersion": "3.4.4",
  "updatedAt": "2022-07-16T01:24:35.476Z",
  "devdoc": {
    "methods": {}
  },
  "userdoc": {
    "methods": {}
  }
}