{
  "contractName": "Main",
  "abi": [
    {
      "constant": true,
      "inputs": [],
      "name": "admin",
      "outputs": [
        {
          "name": "",
          "type": "address"
        }
      ],
      "payable": false,
      "stateMutability": "view",
      "type": "function"
    },
    {
      "inputs": [],
      "payable": false,
      "stateMutability": "nonpayable",
      "type": "constructor"
    },
    {
      "constant": false,
      "inputs": [
        {
          "name": "_session",
          "type": "address"
        }
      ],
      "name": "addSession",
      "outputs": [],
      "payable": false,
      "stateMutability": "nonpayable",
      "type": "function"
    },
    {
      "constant": false,
      "inputs": [
        {
          "name": "_fullName",
          "type": "string"
        },
        {
          "name": "_email",
          "type": "string"
        }
      ],
      "name": "register",
      "outputs": [],
      "payable": false,
      "stateMutability": "nonpayable",
      "type": "function"
    },
    {
      "constant": false,
      "inputs": [
        {
          "name": "_fullName",
          "type": "string"
        },
        {
          "name": "_email",
          "type": "string"
        }
      ],
      "name": "updateParticipant",
      "outputs": [],
      "payable": false,
      "stateMutability": "nonpayable",
      "type": "function"
    },
    {
      "constant": true,
      "inputs": [
        {
          "name": "_account",
          "type": "address"
        }
      ],
      "name": "checkRegisterAccount",
      "outputs": [
        {
          "name": "",
          "type": "bool"
        }
      ],
      "payable": false,
      "stateMutability": "view",
      "type": "function"
    },
    {
      "constant": false,
      "inputs": [
        {
          "name": "_account",
          "type": "address"
        }
      ],
      "name": "updateSessionNumber",
      "outputs": [],
      "payable": false,
      "stateMutability": "nonpayable",
      "type": "function"
    },
    {
      "constant": false,
      "inputs": [
        {
          "name": "_account",
          "type": "address"
        },
        {
          "name": "_deviation",
          "type": "uint256"
        }
      ],
      "name": "updateDeviation",
      "outputs": [],
      "payable": false,
      "stateMutability": "nonpayable",
      "type": "function"
    },
    {
      "constant": true,
      "inputs": [
        {
          "name": "_account",
          "type": "address"
        }
      ],
      "name": "getDeviation",
      "outputs": [
        {
          "name": "",
          "type": "uint256"
        }
      ],
      "payable": false,
      "stateMutability": "view",
      "type": "function"
    },
    {
      "constant": true,
      "inputs": [
        {
          "name": "_account",
          "type": "address"
        }
      ],
      "name": "getSessionNumber",
      "outputs": [
        {
          "name": "",
          "type": "uint256"
        }
      ],
      "payable": false,
      "stateMutability": "view",
      "type": "function"
    },
    {
      "constant": true,
      "inputs": [
        {
          "name": "_account",
          "type": "address"
        }
      ],
      "name": "participants",
      "outputs": [
        {
          "components": [
            {
              "name": "Account",
              "type": "address"
            },
            {
              "name": "FullName",
              "type": "string"
            },
            {
              "name": "Email",
              "type": "string"
            },
            {
              "name": "SessionNumber",
              "type": "uint256"
            },
            {
              "name": "Deviation",
              "type": "uint256"
            }
          ],
          "name": "",
          "type": "tuple"
        }
      ],
      "payable": false,
      "stateMutability": "view",
      "type": "function"
    },
    {
      "constant": true,
      "inputs": [],
      "name": "nParticipants",
      "outputs": [
        {
          "name": "",
          "type": "uint256"
        }
      ],
      "payable": false,
      "stateMutability": "view",
      "type": "function"
    },
    {
      "constant": true,
      "inputs": [
        {
          "name": "_index",
          "type": "uint256"
        }
      ],
      "name": "iParticipants",
      "outputs": [
        {
          "name": "",
          "type": "address"
        }
      ],
      "payable": false,
      "stateMutability": "view",
      "type": "function"
    },
    {
      "constant": true,
      "inputs": [],
      "name": "nSessions",
      "outputs": [
        {
          "name": "",
          "type": "uint256"
        }
      ],
      "payable": false,
      "stateMutability": "view",
      "type": "function"
    },
    {
      "constant": true,
      "inputs": [
        {
          "name": "_index",
          "type": "uint256"
        }
      ],
      "name": "sessions",
      "outputs": [
        {
          "name": "",
          "type": "address"
        }
      ],
      "payable": false,
      "stateMutability": "view",
      "type": "function"
    }
  ],
  "bytecode": "0x608060405234801561001057600080fd5b5033600260006101000a81548173ffffffffffffffffffffffffffffffffffffffff021916908373ffffffffffffffffffffffffffffffffffffffff1602179055506115b7806100616000396000f3006080604052600436106100d0576000357c0100000000000000000000000000000000000000000000000000000000900463ffffffff16806309e69ede146100d55780633ad86db2146101125780633d202a0d1461014f5780633ffbd47f146101785780634534ede0146101a1578063454eed7d146101de57806383c4b7a31461020957806395c0371714610246578063a33a08b91461026f578063a3b9c9e5146102ac578063b63bc3b4146102e9578063d5c54bc414610314578063f390dd861461033d578063f851a44014610366575b600080fd5b3480156100e157600080fd5b506100fc60048036036100f79190810190611219565b610391565b6040516101099190611429565b60405180910390f35b34801561011e57600080fd5b5061013960048036036101349190810190611219565b61056f565b604051610146919061140e565b60405180910390f35b34801561015b57600080fd5b5061017660048036036101719190810190611219565b610619565b005b34801561018457600080fd5b5061019f600480360361019a919081019061127e565b610744565b005b3480156101ad57600080fd5b506101c860048036036101c39190810190611219565b61084d565b6040516101d5919061144b565b60405180910390f35b3480156101ea57600080fd5b506101f3610a29565b604051610200919061144b565b60405180910390f35b34801561021557600080fd5b50610230600480360361022b91908101906112ea565b610a36565b60405161023d91906113f3565b60405180910390f35b34801561025257600080fd5b5061026d6004803603610268919081019061127e565b610a8c565b005b34801561027b57600080fd5b5061029660048036036102919190810190611219565b610b7a565b6040516102a3919061144b565b60405180910390f35b3480156102b857600080fd5b506102d360048036036102ce91908101906112ea565b610d56565b6040516102e091906113f3565b60405180910390f35b3480156102f557600080fd5b506102fe610db2565b60405161030b919061144b565b60405180910390f35b34801561032057600080fd5b5061033b60048036036103369190810190611242565b610dbe565b005b34801561034957600080fd5b50610364600480360361035f9190810190611219565b610ee0565b005b34801561037257600080fd5b5061037b610f49565b60405161038891906113f3565b60405180910390f35b610399611030565b6103a1611030565b6103aa83610f6f565b60a060405190810160405290816000820160009054906101000a900473ffffffffffffffffffffffffffffffffffffffff1673ffffffffffffffffffffffffffffffffffffffff1673ffffffffffffffffffffffffffffffffffffffff168152602001600182018054600181600116156101000203166002900480601f0160208091040260200160405190810160405280929190818152602001828054600181600116156101000203166002900480156104a55780601f1061047a576101008083540402835291602001916104a5565b820191906000526020600020905b81548152906001019060200180831161048857829003601f168201915b50505050508152602001600282018054600181600116156101000203166002900480601f0160208091040260200160405190810160405280929190818152602001828054600181600116156101000203166002900480156105475780601f1061051c57610100808354040283529160200191610547565b820191906000526020600020905b81548152906001019060200180831161052a57829003601f168201915b5050505050815260200160038201548152602001600482015481525050905080915050919050565b600080600090505b60008054905081101561060e5760008181548110151561059357fe5b906000526020600020906005020160000160009054906101000a900473ffffffffffffffffffffffffffffffffffffffff1673ffffffffffffffffffffffffffffffffffffffff168373ffffffffffffffffffffffffffffffffffffffff1614156106015760019150610613565b8080600101915050610577565b600091505b50919050565b60008060008090505b6001805490508110156106e6573373ffffffffffffffffffffffffffffffffffffffff1660018281548110151561065557fe5b9060005260206000200160009054906101000a900473ffffffffffffffffffffffffffffffffffffffff1673ffffffffffffffffffffffffffffffffffffffff1614156106d9576001818154811015156106ab57fe5b9060005260206000200160009054906101000a900473ffffffffffffffffffffffffffffffffffffffff1691505b8080600101915050610622565b3373ffffffffffffffffffffffffffffffffffffffff168273ffffffffffffffffffffffffffffffffffffffff1614151561072057600080fd5b61072984610f6f565b92506001836003016000828254019250508190555050505050565b600060a0604051908101604052803373ffffffffffffffffffffffffffffffffffffffff1681526020018481526020018381526020016000815260200160008152509080600181540180825580915050906001820390600052602060002090600502016000909192909190915060008201518160000160006101000a81548173ffffffffffffffffffffffffffffffffffffffff021916908373ffffffffffffffffffffffffffffffffffffffff1602179055506020820151816001019080519060200190610814929190611076565b506040820151816002019080519060200190610831929190611076565b5060608201518160030155608082015181600401555050505050565b6000610857611030565b61086083610f6f565b60a060405190810160405290816000820160009054906101000a900473ffffffffffffffffffffffffffffffffffffffff1673ffffffffffffffffffffffffffffffffffffffff1673ffffffffffffffffffffffffffffffffffffffff168152602001600182018054600181600116156101000203166002900480601f01602080910402602001604051908101604052809291908181526020018280546001816001161561010002031660029004801561095b5780601f106109305761010080835404028352916020019161095b565b820191906000526020600020905b81548152906001019060200180831161093e57829003601f168201915b50505050508152602001600282018054600181600116156101000203166002900480601f0160208091040260200160405190810160405280929190818152602001828054600181600116156101000203166002900480156109fd5780601f106109d2576101008083540402835291602001916109fd565b820191906000526020600020905b8154815290600101906020018083116109e057829003601f168201915b505050505081526020016003820154815260200160048201548152505090508060600151915050919050565b6000600180549050905090565b600060018054905082101515610a4b57600080fd5b600182815481101515610a5a57fe5b9060005260206000200160009054906101000a900473ffffffffffffffffffffffffffffffffffffffff169050919050565b600080600091505b600080549050821015610b7457600082815481101515610ab057fe5b906000526020600020906005020160000160009054906101000a900473ffffffffffffffffffffffffffffffffffffffff1673ffffffffffffffffffffffffffffffffffffffff163373ffffffffffffffffffffffffffffffffffffffff161415610b6757600082815481101515610b2457fe5b9060005260206000209060050201905082816002019080519060200190610b4c9291906110f6565b5083816001019080519060200190610b659291906110f6565b505b8180600101925050610a94565b50505050565b6000610b84611030565b610b8d83610f6f565b60a060405190810160405290816000820160009054906101000a900473ffffffffffffffffffffffffffffffffffffffff1673ffffffffffffffffffffffffffffffffffffffff1673ffffffffffffffffffffffffffffffffffffffff168152602001600182018054600181600116156101000203166002900480601f016020809104026020016040519081016040528092919081815260200182805460018160011615610100020316600290048015610c885780601f10610c5d57610100808354040283529160200191610c88565b820191906000526020600020905b815481529060010190602001808311610c6b57829003601f168201915b50505050508152602001600282018054600181600116156101000203166002900480601f016020809104026020016040519081016040528092919081815260200182805460018160011615610100020316600290048015610d2a5780601f10610cff57610100808354040283529160200191610d2a565b820191906000526020600020905b815481529060010190602001808311610d0d57829003601f168201915b505050505081526020016003820154815260200160048201548152505090508060800151915050919050565b6000808054905082101515610d6a57600080fd5b600082815481101515610d7957fe5b906000526020600020906005020160000160009054906101000a900473ffffffffffffffffffffffffffffffffffffffff169050919050565b60008080549050905090565b60008060008090505b600180549050811015610e8b573373ffffffffffffffffffffffffffffffffffffffff16600182815481101515610dfa57fe5b9060005260206000200160009054906101000a900473ffffffffffffffffffffffffffffffffffffffff1673ffffffffffffffffffffffffffffffffffffffff161415610e7e57600181815481101515610e5057fe5b9060005260206000200160009054906101000a900473ffffffffffffffffffffffffffffffffffffffff1691505b8080600101915050610dc7565b3373ffffffffffffffffffffffffffffffffffffffff168273ffffffffffffffffffffffffffffffffffffffff16141515610ec557600080fd5b610ece85610f6f565b92508383600401819055505050505050565b60018190806001815401808255809150509060018203906000526020600020016000909192909190916101000a81548173ffffffffffffffffffffffffffffffffffffffff021916908373ffffffffffffffffffffffffffffffffffffffff1602179055505050565b600260009054906101000a900473ffffffffffffffffffffffffffffffffffffffff1681565b600080600090505b60008054905081101561102957600081815481101515610f9357fe5b906000526020600020906005020160000160009054906101000a900473ffffffffffffffffffffffffffffffffffffffff1673ffffffffffffffffffffffffffffffffffffffff168373ffffffffffffffffffffffffffffffffffffffff16141561101c5760008181548110151561100757fe5b9060005260206000209060050201915061102a565b8080600101915050610f77565b5b50919050565b60a060405190810160405280600073ffffffffffffffffffffffffffffffffffffffff168152602001606081526020016060815260200160008152602001600081525090565b828054600181600116156101000203166002900490600052602060002090601f016020900481019282601f106110b757805160ff19168380011785556110e5565b828001600101855582156110e5579182015b828111156110e45782518255916020019190600101906110c9565b5b5090506110f29190611176565b5090565b828054600181600116156101000203166002900490600052602060002090601f016020900481019282601f1061113757805160ff1916838001178555611165565b82800160010185558215611165579182015b82811115611164578251825591602001919060010190611149565b5b5090506111729190611176565b5090565b61119891905b8082111561119457600081600090555060010161117c565b5090565b90565b60006111a78235611500565b905092915050565b600082601f83011215156111c257600080fd5b81356111d56111d082611493565b611466565b915080825260208301602083018583830111156111f157600080fd5b6111fc83828461152a565b50505092915050565b60006112118235611520565b905092915050565b60006020828403121561122b57600080fd5b60006112398482850161119b565b91505092915050565b6000806040838503121561125557600080fd5b60006112638582860161119b565b925050602061127485828601611205565b9150509250929050565b6000806040838503121561129157600080fd5b600083013567ffffffffffffffff8111156112ab57600080fd5b6112b7858286016111af565b925050602083013567ffffffffffffffff8111156112d457600080fd5b6112e0858286016111af565b9150509250929050565b6000602082840312156112fc57600080fd5b600061130a84828501611205565b91505092915050565b61131c816114ca565b82525050565b61132b816114ea565b82525050565b600061133c826114bf565b808452611350816020860160208601611539565b6113598161156c565b602085010191505092915050565b600060a08301600083015161137f6000860182611313565b50602083015184820360208601526113978282611331565b915050604083015184820360408601526113b18282611331565b91505060608301516113c660608601826113e4565b5060808301516113d960808601826113e4565b508091505092915050565b6113ed816114f6565b82525050565b60006020820190506114086000830184611313565b92915050565b60006020820190506114236000830184611322565b92915050565b600060208201905081810360008301526114438184611367565b905092915050565b600060208201905061146060008301846113e4565b92915050565b6000604051905081810181811067ffffffffffffffff8211171561148957600080fd5b8060405250919050565b600067ffffffffffffffff8211156114aa57600080fd5b601f19601f8301169050602081019050919050565b600081519050919050565b600073ffffffffffffffffffffffffffffffffffffffff82169050919050565b60008115159050919050565b6000819050919050565b600073ffffffffffffffffffffffffffffffffffffffff82169050919050565b6000819050919050565b82818337600083830152505050565b60005b8381101561155757808201518184015260208101905061153c565b83811115611566576000848401525b50505050565b6000601f19601f83011690509190505600a265627a7a7230582081f6420486c237e1e13e031497d57b5b44a86df9323800424ecb46951000f9f26c6578706572696d656e74616cf50037",
  "source": "pragma solidity ^0.4.17;\npragma experimental ABIEncoderV2;\n\ncontract Main {\n\n    // Structure to hold details of Bidder\n    struct IParticipant{ \n        address Account;\n        string FullName;\n        string Email;\n        uint256 SessionNumber;\n        uint256 Deviation;\n    }\n    \n    IParticipant[] private registerParticipants;\n    address[] private pricingSessions; \n    address public admin;\n\n    modifier onlyAdmin(){\n        require(msg.sender == admin);\n        _;\n    }\n\n    modifier onlySession(){\n        address pricingSession;\n        for(uint256 i = 0; i < pricingSessions.length; i++){\n            if(pricingSessions[i] == msg.sender)\n                pricingSession = pricingSessions[i];\n        }\n        require(pricingSession == msg.sender);\n        _;\n    }\n\n    function Main() public {\n        admin = msg.sender;\n    }\n\n\n    // Add a Session Contract address into Main Contract. Use to link Session with Main\n    function addSession(address _session) public {\n        pricingSessions.push(_session);\n    }\n\n    function register(string _fullName, string _email) public {           \n        registerParticipants.push(IParticipant(msg.sender, _fullName, _email, 0, 0));\n    }\n\n    function updateParticipant(string _fullName, string _email) public{\n        for(uint256 i = 0; i < registerParticipants.length; i++)\n        {\n            if(msg.sender == registerParticipants[i].Account)\n            {\n                IParticipant storage participant = registerParticipants[i];\n                participant.Email = _email;\n                participant.FullName = _fullName;\n            }\n        }        \n    }\n\n    function checkRegisterAccount(address _account) view public returns(bool){\n        for(uint256 i = 0; i < registerParticipants.length; i++)\n        {\n            if(_account == registerParticipants[i].Account)\n                return true;\n        }\n        return false;\n    }\n\n    function updateSessionNumber(address _account) onlySession public {\n        IParticipant storage participant = getParticipant(_account);\n        participant.SessionNumber += 1;\n    }\n\n    function updateDeviation(address _account, uint256 _deviation) onlySession public {\n        IParticipant storage participant = getParticipant(_account);\n        participant.Deviation = _deviation;\n    }\n\n    function getParticipant(address _account) internal returns (IParticipant storage){\n        for(uint256 i = 0; i < registerParticipants.length; i++)\n        {\n            if(_account == registerParticipants[i].Account)\n                return registerParticipants[i];\n        }\n    }\n\n     // View functions\n    function getDeviation(address _account) view public returns (uint256){\n         IParticipant memory participant = getParticipant(_account);\n         return participant.Deviation;\n    }\n\n    function getSessionNumber(address _account) view public returns(uint256){\n        IParticipant memory participant = getParticipant(_account);\n         return participant.SessionNumber;\n    }\n\n    function participants (address _account) view public returns(IParticipant){\n        IParticipant memory participant = getParticipant(_account);\n        return participant;\n    }\n\n    function nParticipants() view public returns (uint256){\n        return registerParticipants.length;\n    }\n\n    function iParticipants (uint256 _index) view public returns(address){\n        require(_index < registerParticipants.length);\n       \n        return registerParticipants[_index].Account;       \n    }\n\n    function nSessions() view public returns (uint256){\n        return pricingSessions.length;\n    }\n\n    function sessions(uint256 _index) view public returns(address){\n        require(_index < pricingSessions.length);\n        return pricingSessions[_index];\n    } \n}\n",
  "sourcePath": "D:\\Learning\\Blockchain-Funix\\_FunixPricingChain\\truffle\\contracts\\Main.sol",
  "compiler": {
    "name": "solc",
    "version": "0.4.26+commit.4563c3fc.Emscripten.clang"
  },
  "schemaVersion": "3.4.4",
  "updatedAt": "2022-07-07T13:02:48.338Z",
  "devdoc": {
    "methods": {}
  },
  "userdoc": {
    "methods": {}
  }
}