{
  "contractName": "Session",
  "abi": [
    {
      "constant": true,
      "inputs": [],
      "name": "pricingSession",
      "outputs": [
        {
          "name": "ProductName",
          "type": "string"
        },
        {
          "name": "ProductDescription",
          "type": "string"
        },
        {
          "name": "ProposedPrice",
          "type": "uint256"
        },
        {
          "name": "FinalPrice",
          "type": "uint256"
        },
        {
          "name": "State",
          "type": "uint8"
        }
      ],
      "payable": false,
      "stateMutability": "view",
      "type": "function"
    },
    {
      "constant": true,
      "inputs": [],
      "name": "mainContract",
      "outputs": [
        {
          "name": "",
          "type": "address"
        }
      ],
      "payable": false,
      "stateMutability": "view",
      "type": "function"
    },
    {
      "constant": true,
      "inputs": [],
      "name": "admin",
      "outputs": [
        {
          "name": "",
          "type": "address"
        }
      ],
      "payable": false,
      "stateMutability": "view",
      "type": "function"
    },
    {
      "inputs": [
        {
          "name": "_mainContract",
          "type": "address"
        },
        {
          "name": "_productName",
          "type": "string"
        },
        {
          "name": "_productDescription",
          "type": "string"
        },
        {
          "name": "_productImages",
          "type": "string[]"
        }
      ],
      "payable": false,
      "stateMutability": "nonpayable",
      "type": "constructor"
    },
    {
      "anonymous": false,
      "inputs": [],
      "name": "started",
      "type": "event"
    },
    {
      "anonymous": false,
      "inputs": [],
      "name": "stoped",
      "type": "event"
    },
    {
      "anonymous": false,
      "inputs": [
        {
          "indexed": false,
          "name": "account",
          "type": "address"
        },
        {
          "indexed": false,
          "name": "givenPrice",
          "type": "uint256"
        },
        {
          "indexed": false,
          "name": "proposedPrice",
          "type": "uint256"
        }
      ],
      "name": "givenPriceUpdated",
      "type": "event"
    },
    {
      "anonymous": false,
      "inputs": [
        {
          "indexed": false,
          "name": "finalPrice",
          "type": "uint256"
        }
      ],
      "name": "finalPriceUpdated",
      "type": "event"
    },
    {
      "constant": false,
      "inputs": [],
      "name": "startPricingSession",
      "outputs": [],
      "payable": false,
      "stateMutability": "nonpayable",
      "type": "function"
    },
    {
      "constant": false,
      "inputs": [],
      "name": "stopPricingSession",
      "outputs": [],
      "payable": false,
      "stateMutability": "nonpayable",
      "type": "function"
    },
    {
      "constant": false,
      "inputs": [
        {
          "name": "_price",
          "type": "uint256"
        }
      ],
      "name": "setGivenPrice",
      "outputs": [],
      "payable": false,
      "stateMutability": "nonpayable",
      "type": "function"
    },
    {
      "constant": false,
      "inputs": [
        {
          "name": "_price",
          "type": "uint256"
        }
      ],
      "name": "setFinalPrice",
      "outputs": [],
      "payable": false,
      "stateMutability": "nonpayable",
      "type": "function"
    },
    {
      "constant": false,
      "inputs": [
        {
          "name": "_productName",
          "type": "string"
        },
        {
          "name": "_productDescription",
          "type": "string"
        },
        {
          "name": "_productImages",
          "type": "string[]"
        }
      ],
      "name": "updateProductInfo",
      "outputs": [],
      "payable": false,
      "stateMutability": "nonpayable",
      "type": "function"
    },
    {
      "constant": true,
      "inputs": [
        {
          "name": "_account",
          "type": "address"
        }
      ],
      "name": "viewParticipantInfo",
      "outputs": [
        {
          "components": [
            {
              "name": "Account",
              "type": "address"
            },
            {
              "name": "GivenPrice",
              "type": "uint256"
            },
            {
              "name": "Deviation",
              "type": "uint256"
            }
          ],
          "name": "",
          "type": "tuple"
        }
      ],
      "payable": false,
      "stateMutability": "view",
      "type": "function"
    }
  ],
  "bytecode": "0x60806040523480156200001157600080fd5b50604051620021c4380380620021c4833981018060405262000037919081019062000596565b836000806101000a81548173ffffffffffffffffffffffffffffffffffffffff021916908373ffffffffffffffffffffffffffffffffffffffff16021790555083600160006101000a81548173ffffffffffffffffffffffffffffffffffffffff021916908373ffffffffffffffffffffffffffffffffffffffff1602179055508260026000019080519060200190620000d39291906200022b565b508160026001019080519060200190620000ef9291906200022b565b50806002800190805190602001906200010a929190620002b2565b506000600260050160006101000a81548160ff021916908360038111156200012e57fe5b021790555033600860006101000a81548173ffffffffffffffffffffffffffffffffffffffff021916908373ffffffffffffffffffffffffffffffffffffffff160217905550600160009054906101000a900473ffffffffffffffffffffffffffffffffffffffff1673ffffffffffffffffffffffffffffffffffffffff1663f390dd86306040518263ffffffff167c0100000000000000000000000000000000000000000000000000000000028152600401620001ed91906200065e565b600060405180830381600087803b1580156200020857600080fd5b505af11580156200021d573d6000803e3d6000fd5b5050505050505050620007a2565b828054600181600116156101000203166002900490600052602060002090601f016020900481019282601f106200026e57805160ff19168380011785556200029f565b828001600101855582156200029f579182015b828111156200029e57825182559160200191906001019062000281565b5b509050620002ae919062000319565b5090565b82805482825590600052602060002090810192821562000306579160200282015b8281111562000305578251829080519060200190620002f492919062000341565b5091602001919060010190620002d3565b5b509050620003159190620003c8565b5090565b6200033e91905b808211156200033a57600081600090555060010162000320565b5090565b90565b828054600181600116156101000203166002900490600052602060002090601f016020900481019282601f106200038457805160ff1916838001178555620003b5565b82800160010185558215620003b5579182015b82811115620003b457825182559160200191906001019062000397565b5b509050620003c4919062000319565b5090565b620003f691905b80821115620003f25760008181620003e89190620003f9565b50600101620003cf565b5090565b90565b50805460018160011615610100020316600290046000825580601f1062000421575062000442565b601f01602090049060005260206000209081019062000441919062000319565b5b50565b60006200045382516200074c565b905092915050565b600082601f83011215156200046f57600080fd5b8151620004866200048082620006a9565b6200067b565b9150818183526020840193506020810190508360005b83811015620004d05781518601620004b58882620004da565b8452602084019350602083019250506001810190506200049c565b5050505092915050565b600082601f8301121515620004ee57600080fd5b815162000505620004ff82620006d2565b6200067b565b915080825260208301602083018583830111156200052257600080fd5b6200052f8382846200076c565b50505092915050565b600082601f83011215156200054c57600080fd5b8151620005636200055d82620006ff565b6200067b565b915080825260208301602083018583830111156200058057600080fd5b6200058d8382846200076c565b50505092915050565b60008060008060808587031215620005ad57600080fd5b6000620005bd8782880162000445565b945050602085015167ffffffffffffffff811115620005db57600080fd5b620005e98782880162000538565b935050604085015167ffffffffffffffff8111156200060757600080fd5b620006158782880162000538565b925050606085015167ffffffffffffffff8111156200063357600080fd5b62000641878288016200045b565b91505092959194509250565b62000658816200072c565b82525050565b60006020820190506200067560008301846200064d565b92915050565b6000604051905081810181811067ffffffffffffffff821117156200069f57600080fd5b8060405250919050565b600067ffffffffffffffff821115620006c157600080fd5b602082029050602081019050919050565b600067ffffffffffffffff821115620006ea57600080fd5b601f19601f8301169050602081019050919050565b600067ffffffffffffffff8211156200071757600080fd5b601f19601f8301169050602081019050919050565b600073ffffffffffffffffffffffffffffffffffffffff82169050919050565b600073ffffffffffffffffffffffffffffffffffffffff82169050919050565b60005b838110156200078c5780820151818401526020810190506200076f565b838111156200079c576000848401525b50505050565b611a1280620007b26000396000f300608060405260043610610099576000357c0100000000000000000000000000000000000000000000000000000000900463ffffffff16806335c9b7bc1461009e5780633b64368d146100c75780639b3ef1ee146101045780639c3c2f7a1461011b578063ab848d0c14610132578063ac2060fa1461015b578063bb55f25c1461018a578063d270e7ab146101b3578063f851a440146101de575b600080fd5b3480156100aa57600080fd5b506100c560048036036100c091908101906115a5565b610209565b005b3480156100d357600080fd5b506100ee60048036036100e99190810190611553565b6102b7565b6040516100fb919061180f565b60405180910390f35b34801561011057600080fd5b5061011961037b565b005b34801561012757600080fd5b50610130610469565b005b34801561013e57600080fd5b506101596004803603610154919081019061163c565b610584565b005b34801561016757600080fd5b50610170610921565b6040516101819594939291906117ae565b60405180910390f35b34801561019657600080fd5b506101b160048036036101ac919081019061163c565b610a82565b005b3480156101bf57600080fd5b506101c8610f62565b6040516101d59190611733565b60405180910390f35b3480156101ea57600080fd5b506101f3610f87565b6040516102009190611733565b60405180910390f35b3373ffffffffffffffffffffffffffffffffffffffff16600860009054906101000a900473ffffffffffffffffffffffffffffffffffffffff1673ffffffffffffffffffffffffffffffffffffffff1614151561026557600080fd5b826002600001908051906020019061027e9291906111b0565b5081600260010190805190602001906102989291906111b0565b50806002800190805190602001906102b1929190611230565b50505050565b6102bf611290565b600a60008373ffffffffffffffffffffffffffffffffffffffff1673ffffffffffffffffffffffffffffffffffffffff168152602001908152602001600020606060405190810160405290816000820160009054906101000a900473ffffffffffffffffffffffffffffffffffffffff1673ffffffffffffffffffffffffffffffffffffffff1673ffffffffffffffffffffffffffffffffffffffff168152602001600182015481526020016002820154815250509050919050565b3373ffffffffffffffffffffffffffffffffffffffff16600860009054906101000a900473ffffffffffffffffffffffffffffffffffffffff1673ffffffffffffffffffffffffffffffffffffffff161415156103d757600080fd5b600160038111156103e457fe5b600260050160009054906101000a900460ff16600381111561040257fe5b14151561040e57600080fd5b6002600381111561041b57fe5b600260050160009054906101000a900460ff16600381111561043957fe5b50507f2d14c593bf18e19181bac5f1510c7b7810adf097cfcb5739038f21491b929f5860405160405180910390a1565b3373ffffffffffffffffffffffffffffffffffffffff16600860009054906101000a900473ffffffffffffffffffffffffffffffffffffffff1673ffffffffffffffffffffffffffffffffffffffff161415156104c557600080fd5b600060038111156104d257fe5b600260050160009054906101000a900460ff1660038111156104f057fe5b148061052457506002600381111561050457fe5b600260050160009054906101000a900460ff16600381111561052257fe5b145b151561052f57600080fd5b6001600260050160006101000a81548160ff0219169083600381111561055157fe5b02179055507f1f2698abef4ef4096e07a6fbb78b56fe76953e9079ce5b9559ce4398defd412a60405160405180910390a1565b6000600160009054906101000a900473ffffffffffffffffffffffffffffffffffffffff1673ffffffffffffffffffffffffffffffffffffffff16633ad86db2336040518263ffffffff167c01000000000000000000000000000000000000000000000000000000000281526004016105fd9190611733565b602060405180830381600087803b15801561061757600080fd5b505af115801561062b573d6000803e3d6000fd5b505050506040513d601f19601f8201168201806040525061064f919081019061157c565b905080151561065d57600080fd5b600073ffffffffffffffffffffffffffffffffffffffff16600a60003373ffffffffffffffffffffffffffffffffffffffff1673ffffffffffffffffffffffffffffffffffffffff16815260200190815260200160002060000160009054906101000a900473ffffffffffffffffffffffffffffffffffffffff1673ffffffffffffffffffffffffffffffffffffffff1614156108855733600a60003373ffffffffffffffffffffffffffffffffffffffff1673ffffffffffffffffffffffffffffffffffffffff16815260200190815260200160002060000160006101000a81548173ffffffffffffffffffffffffffffffffffffffff021916908373ffffffffffffffffffffffffffffffffffffffff16021790555060093390806001815401808255809150509060018203906000526020600020016000909192909190916101000a81548173ffffffffffffffffffffffffffffffffffffffff021916908373ffffffffffffffffffffffffffffffffffffffff16021790555050600160009054906101000a900473ffffffffffffffffffffffffffffffffffffffff1673ffffffffffffffffffffffffffffffffffffffff16633d202a0d336040518263ffffffff167c01000000000000000000000000000000000000000000000000000000000281526004016108529190611733565b600060405180830381600087803b15801561086c57600080fd5b505af1158015610880573d6000803e3d6000fd5b505050505b81600a60003373ffffffffffffffffffffffffffffffffffffffff1673ffffffffffffffffffffffffffffffffffffffff168152602001908152602001600020600101819055506108d4610fad565b6002600301819055507f95f9cba01b31eee2dec41e507ae6f6483f0f81fb706cfbc2bf7bfc14f7a7c73c338360026003015460405161091593929190611777565b60405180910390a15050565b6002806000018054600181600116156101000203166002900480601f0160208091040260200160405190810160405280929190818152602001828054600181600116156101000203166002900480156109bb5780601f10610990576101008083540402835291602001916109bb565b820191906000526020600020905b81548152906001019060200180831161099e57829003601f168201915b505050505090806001018054600181600116156101000203166002900480601f016020809104026020016040519081016040528092919081815260200182805460018160011615610100020316600290048015610a595780601f10610a2e57610100808354040283529160200191610a59565b820191906000526020600020905b815481529060010190602001808311610a3c57829003601f168201915b5050505050908060030154908060040154908060050160009054906101000a900460ff16905085565b6000806000806000806000803373ffffffffffffffffffffffffffffffffffffffff16600860009054906101000a900473ffffffffffffffffffffffffffffffffffffffff1673ffffffffffffffffffffffffffffffffffffffff16141515610aea57600080fd5b600380811115610af657fe5b600260050160009054906101000a900460ff166003811115610b1457fe5b14151515610b2157600080fd5b6003600260050160006101000a81548160ff02191690836003811115610b4357fe5b021790555088600260040181905550600097505b600980549050881015610f2057600a600060098a815481101515610b7757fe5b9060005260206000200160009054906101000a900473ffffffffffffffffffffffffffffffffffffffff1673ffffffffffffffffffffffffffffffffffffffff1673ffffffffffffffffffffffffffffffffffffffff1681526020019081526020016000209650610bed87600101548a03611194565b955088945060648587811515610bff57fe5b04029350838760020181905550600160009054906101000a900473ffffffffffffffffffffffffffffffffffffffff1673ffffffffffffffffffffffffffffffffffffffff16634534ede060098a815481101515610c5957fe5b9060005260206000200160009054906101000a900473ffffffffffffffffffffffffffffffffffffffff166040518263ffffffff167c0100000000000000000000000000000000000000000000000000000000028152600401610cbc9190611733565b602060405180830381600087803b158015610cd657600080fd5b505af1158015610cea573d6000803e3d6000fd5b505050506040513d601f19601f82011682018060405250610d0e9190810190611665565b9250600160009054906101000a900473ffffffffffffffffffffffffffffffffffffffff1673ffffffffffffffffffffffffffffffffffffffff1663a33a08b960098a815481101515610d5d57fe5b9060005260206000200160009054906101000a900473ffffffffffffffffffffffffffffffffffffffff166040518263ffffffff167c0100000000000000000000000000000000000000000000000000000000028152600401610dc09190611733565b602060405180830381600087803b158015610dda57600080fd5b505af1158015610dee573d6000803e3d6000fd5b505050506040513d601f19601f82011682018060405250610e129190810190611665565b9150838383020195506001830194508486811515610e2c57fe5b049050600160009054906101000a900473ffffffffffffffffffffffffffffffffffffffff1673ffffffffffffffffffffffffffffffffffffffff1663d5c54bc460098a815481101515610e7c57fe5b9060005260206000200160009054906101000a900473ffffffffffffffffffffffffffffffffffffffff16836040518363ffffffff167c0100000000000000000000000000000000000000000000000000000000028152600401610ee192919061174e565b600060405180830381600087803b158015610efb57600080fd5b505af1158015610f0f573d6000803e3d6000fd5b505050508780600101985050610b57565b7f1a29a00b21dee865c7bfcf603bef96b3ed0fbc07420de8e0dd5831ab0f0d447889604051610f4f919061182a565b60405180910390a1505050505050505050565b6000809054906101000a900473ffffffffffffffffffffffffffffffffffffffff1681565b600860009054906101000a900473ffffffffffffffffffffffffffffffffffffffff1681565b60008060008060008060008060098054905096506000955060009450600093505b8684101561117457600160009054906101000a900473ffffffffffffffffffffffffffffffffffffffff1673ffffffffffffffffffffffffffffffffffffffff1663a33a08b960098681548110151561102357fe5b9060005260206000200160009054906101000a900473ffffffffffffffffffffffffffffffffffffffff166040518263ffffffff167c01000000000000000000000000000000000000000000000000000000000281526004016110869190611733565b602060405180830381600087803b1580156110a057600080fd5b505af11580156110b4573d6000803e3d6000fd5b505050506040513d601f19601f820116820180604052506110d89190810190611665565b9250600a60006009868154811015156110ed57fe5b9060005260206000200160009054906101000a900473ffffffffffffffffffffffffffffffffffffffff1673ffffffffffffffffffffffffffffffffffffffff1673ffffffffffffffffffffffffffffffffffffffff1681526020019081526020016000206001015491508260640382028601955082850194508380600101945050610fce565b8487606402038681151561118457fe5b0490508097505050505050505090565b6000808210156111a757816000036111a9565b815b9050919050565b828054600181600116156101000203166002900490600052602060002090601f016020900481019282601f106111f157805160ff191683800117855561121f565b8280016001018555821561121f579182015b8281111561121e578251825591602001919060010190611203565b5b50905061122c91906112c8565b5090565b82805482825590600052602060002090810192821561127f579160200282015b8281111561127e57825182908051906020019061126e9291906112ed565b5091602001919060010190611250565b5b50905061128c919061136d565b5090565b606060405190810160405280600073ffffffffffffffffffffffffffffffffffffffff16815260200160008152602001600081525090565b6112ea91905b808211156112e65760008160009055506001016112ce565b5090565b90565b828054600181600116156101000203166002900490600052602060002090601f016020900481019282601f1061132e57805160ff191683800117855561135c565b8280016001018555821561135c579182015b8281111561135b578251825591602001919060010190611340565b5b50905061136991906112c8565b5090565b61139691905b8082111561139257600081816113899190611399565b50600101611373565b5090565b90565b50805460018160011615610100020316600290046000825580601f106113bf57506113de565b601f0160209004906000526020600020908101906113dd91906112c8565b5b50565b60006113ed823561193d565b905092915050565b600082601f830112151561140857600080fd5b813561141b61141682611872565b611845565b9150818183526020840193506020810190508360005b838110156114615781358601611447888261147f565b845260208401935060208301925050600181019050611431565b5050505092915050565b6000611477825161195d565b905092915050565b600082601f830112151561149257600080fd5b81356114a56114a08261189a565b611845565b915080825260208301602083018583830111156114c157600080fd5b6114cc838284611985565b50505092915050565b600082601f83011215156114e857600080fd5b81356114fb6114f6826118c6565b611845565b9150808252602083016020830185838301111561151757600080fd5b611522838284611985565b50505092915050565b60006115378235611969565b905092915050565b600061154b8251611969565b905092915050565b60006020828403121561156557600080fd5b6000611573848285016113e1565b91505092915050565b60006020828403121561158e57600080fd5b600061159c8482850161146b565b91505092915050565b6000806000606084860312156115ba57600080fd5b600084013567ffffffffffffffff8111156115d457600080fd5b6115e0868287016114d5565b935050602084013567ffffffffffffffff8111156115fd57600080fd5b611609868287016114d5565b925050604084013567ffffffffffffffff81111561162657600080fd5b611632868287016113f5565b9150509250925092565b60006020828403121561164e57600080fd5b600061165c8482850161152b565b91505092915050565b60006020828403121561167757600080fd5b60006116858482850161153f565b91505092915050565b611697816118fd565b82525050565b6116a681611973565b82525050565b60006116b7826118f2565b8084526116cb816020860160208601611994565b6116d4816119c7565b602085010191505092915050565b6060820160008201516116f8600085018261168e565b50602082015161170b6020850182611724565b50604082015161171e6040850182611724565b50505050565b61172d81611933565b82525050565b6000602082019050611748600083018461168e565b92915050565b6000604082019050611763600083018561168e565b6117706020830184611724565b9392505050565b600060608201905061178c600083018661168e565b6117996020830185611724565b6117a66040830184611724565b949350505050565b600060a08201905081810360008301526117c881886116ac565b905081810360208301526117dc81876116ac565b90506117eb6040830186611724565b6117f86060830185611724565b611805608083018461169d565b9695505050505050565b600060608201905061182460008301846116e2565b92915050565b600060208201905061183f6000830184611724565b92915050565b6000604051905081810181811067ffffffffffffffff8211171561186857600080fd5b8060405250919050565b600067ffffffffffffffff82111561188957600080fd5b602082029050602081019050919050565b600067ffffffffffffffff8211156118b157600080fd5b601f19601f8301169050602081019050919050565b600067ffffffffffffffff8211156118dd57600080fd5b601f19601f8301169050602081019050919050565b600081519050919050565b600073ffffffffffffffffffffffffffffffffffffffff82169050919050565b600060048210151561192b57fe5b819050919050565b6000819050919050565b600073ffffffffffffffffffffffffffffffffffffffff82169050919050565b60008115159050919050565b6000819050919050565b600061197e8261191d565b9050919050565b82818337600083830152505050565b60005b838110156119b2578082015181840152602081019050611997565b838111156119c1576000848401525b50505050565b6000601f19601f83011690509190505600a265627a7a723058209e05b08f594ce0b10eba074f5e2a39d001e51562a996b9d5c1edc1131d622fb36c6578706572696d656e74616cf50037",
  "source": "pragma solidity ^0.4.17;\npragma experimental ABIEncoderV2;\nimport './Main.sol';\n\n// Interface of Main contract to call from Session contract\n// contract Main {\n//     struct IParticipant{ \n//         address Account;\n//         string FullName;\n//         string Email;\n//         uint256 SessionNumber;\n//         uint256 Deviation;\n//     }\n\n//     function addSession(address session) public {}\n//     function participants (address _account) view public returns(IParticipant){}\n//     function updateSessionNumber2() public returns(address) {}\n\n// }\n\ncontract Session {\n    // Variable to hold Main Contract Address when create new Session Contract\n    address public mainContract;\n    // Variable to hold Main Contract instance to call functions from Main\n    Main MainContract;\n    enum SessionState{created, started, stoped, closed}\n\n    // TODO: Variables\n    struct IPricingSession{\n        string ProductName;\n        string ProductDescription;\n        string[] ProductImages;\n        uint256 ProposedPrice;\n        uint256 FinalPrice;\n        SessionState State;\n    }\n\n    struct ISessionParticipant{\n        address Account;\n        uint256 GivenPrice;\n        uint256 Deviation;\n    }\n\n    IPricingSession public pricingSession;\n    address public admin;\n    address[] private participantAccounts;\n    mapping(address => ISessionParticipant) sessionParticipant;\n    \n\n    modifier onlyAdmin(){\n        require(admin == msg.sender);\n        _;\n    }\n\n    event started();\n    event stoped();\n    event givenPriceUpdated(address account, uint256 givenPrice, uint256 proposedPrice);\n    event finalPriceUpdated (uint256 finalPrice);\n\n\n    function Session(address _mainContract, string _productName, string _productDescription, string[] memory _productImages\n        // Other arguments\n    ) public {\n\n        // Get Main Contract instance\n        mainContract = _mainContract;\n         MainContract =  Main(_mainContract);\n        \n        // TODO: Init Session contract\n        pricingSession.ProductName = _productName;\n        pricingSession.ProductDescription = _productDescription;\n        pricingSession.ProductImages = _productImages;\n        pricingSession.State = SessionState.created;\n\n        admin = msg.sender;\n\n        \n        // Call Main Contract function to link current contract.\n        MainContract.addSession(address(this));\n    }\n\n    // TODO: Functions\n    function startPricingSession() onlyAdmin() public{\n        require(pricingSession.State == SessionState.created || pricingSession.State == SessionState.stoped);\n\n        pricingSession.State = SessionState.started;\n        emit started();\n    }\n\n    function stopPricingSession() onlyAdmin() public{\n        require(pricingSession.State == SessionState.started);\n\n        pricingSession.State == SessionState.stoped;\n        emit stoped();\n    }\n\n    function setGivenPrice(uint256 _price) public{\n       bool isRegisted = MainContract.checkRegisterAccount(msg.sender);\n       require (isRegisted);\n\n        // update participant\n        if(sessionParticipant[msg.sender].Account == address(0)){\n            sessionParticipant[msg.sender].Account = msg.sender;\n\n            participantAccounts.push(msg.sender);\n\n            MainContract.updateSessionNumber(msg.sender);\n        }\n            \n        sessionParticipant[msg.sender].GivenPrice = _price;\n        \n        pricingSession.ProposedPrice = calculatePrice();\n\n        emit givenPriceUpdated(msg.sender, _price, pricingSession.ProposedPrice);\n    }\n\n    function setFinalPrice(uint256 _price) onlyAdmin public{\n        require(pricingSession.State != SessionState.closed);\n\n        pricingSession.State = SessionState.closed;\n        pricingSession.FinalPrice = _price;\n\n        for(uint256 i = 0; i < participantAccounts.length; i++){\n            // in session\n            ISessionParticipant storage itemParticipant = sessionParticipant[participantAccounts[i]];\n                      \n            uint256 numerator = abs(_price - itemParticipant.GivenPrice);\n            uint256 denominator = _price;\n\n            uint256 deviation = numerator / denominator * 100;\n            itemParticipant.Deviation = deviation;\n\n            // in main\n            uint256 sessionNumber = MainContract.getSessionNumber(participantAccounts[i]);           \n            uint256 deviationCurrent = MainContract.getDeviation(participantAccounts[i]);\n\n            numerator = deviationCurrent * sessionNumber + deviation;\n            denominator = sessionNumber + 1;\n\n            uint256 newDeviation = numerator / denominator;\n            MainContract.updateDeviation(participantAccounts[i], newDeviation);\n        }\n\n        \n        emit finalPriceUpdated(_price);\n    }\n\n    function abs(uint256 x) private pure returns (uint256) {\n        return x >= 0 ? x : -x;\n    }\n\n    function calculatePrice() private returns(uint256){\n        uint256 n = participantAccounts.length;\n        uint256 numerator = 0;\n        uint256 denominator = 0;\n\n        for(uint256 i = 0; i < n; i++){\n            uint256 deviation = MainContract.getDeviation(participantAccounts[i]);\n            uint256 pGivenPrice = sessionParticipant[participantAccounts[i]].GivenPrice;\n\n            numerator += (pGivenPrice * (100 - deviation));\n            denominator += deviation;\n        }    \n\n        uint256 proposedPrice = numerator / ((100 * n) - denominator);\n        return proposedPrice;\n    }\n\n    function updateProductInfo(string _productName, string _productDescription, string[] memory _productImages) onlyAdmin() public{\n        pricingSession.ProductName = _productName;\n        pricingSession.ProductDescription = _productDescription;\n        pricingSession.ProductImages = _productImages;\n    }\n\n    function viewParticipantInfo(address _account) view public returns (ISessionParticipant){\n        return sessionParticipant[_account];\n    }\n}\n",
  "sourcePath": "D:\\Learning\\Blockchain-Funix\\_FunixPricingChain\\truffle\\contracts\\Session.sol",
  "compiler": {
    "name": "solc",
    "version": "0.4.26+commit.4563c3fc.Emscripten.clang"
  },
  "schemaVersion": "3.4.4",
  "updatedAt": "2022-07-07T13:02:48.343Z",
  "devdoc": {
    "methods": {}
  },
  "userdoc": {
    "methods": {}
  }
}