{
  "contractName": "Session",
  "abi": [
    {
      "constant": true,
      "inputs": [],
      "name": "mainContract",
      "outputs": [
        {
          "name": "",
          "type": "address"
        }
      ],
      "payable": false,
      "stateMutability": "view",
      "type": "function"
    },
    {
      "constant": true,
      "inputs": [],
      "name": "admin",
      "outputs": [
        {
          "name": "",
          "type": "address"
        }
      ],
      "payable": false,
      "stateMutability": "view",
      "type": "function"
    },
    {
      "inputs": [
        {
          "name": "_mainContract",
          "type": "address"
        },
        {
          "name": "_productName",
          "type": "string"
        },
        {
          "name": "_productDescription",
          "type": "string"
        },
        {
          "name": "_productImages",
          "type": "string[]"
        }
      ],
      "payable": false,
      "stateMutability": "nonpayable",
      "type": "constructor"
    },
    {
      "anonymous": false,
      "inputs": [],
      "name": "started",
      "type": "event"
    },
    {
      "anonymous": false,
      "inputs": [],
      "name": "stoped",
      "type": "event"
    },
    {
      "anonymous": false,
      "inputs": [
        {
          "indexed": false,
          "name": "account",
          "type": "address"
        },
        {
          "indexed": false,
          "name": "givenPrice",
          "type": "uint256"
        },
        {
          "indexed": false,
          "name": "proposedPrice",
          "type": "uint256"
        }
      ],
      "name": "givenPriceUpdated",
      "type": "event"
    },
    {
      "anonymous": false,
      "inputs": [
        {
          "indexed": false,
          "name": "finalPrice",
          "type": "uint256"
        }
      ],
      "name": "finalPriceUpdated",
      "type": "event"
    },
    {
      "constant": false,
      "inputs": [],
      "name": "startPricingSession",
      "outputs": [],
      "payable": false,
      "stateMutability": "nonpayable",
      "type": "function"
    },
    {
      "constant": false,
      "inputs": [],
      "name": "stopPricingSession",
      "outputs": [],
      "payable": false,
      "stateMutability": "nonpayable",
      "type": "function"
    },
    {
      "constant": false,
      "inputs": [
        {
          "name": "_price",
          "type": "uint256"
        }
      ],
      "name": "setGivenPrice",
      "outputs": [],
      "payable": false,
      "stateMutability": "nonpayable",
      "type": "function"
    },
    {
      "constant": false,
      "inputs": [
        {
          "name": "_price",
          "type": "uint256"
        }
      ],
      "name": "setFinalPrice",
      "outputs": [],
      "payable": false,
      "stateMutability": "nonpayable",
      "type": "function"
    },
    {
      "constant": false,
      "inputs": [
        {
          "name": "_productName",
          "type": "string"
        },
        {
          "name": "_productDescription",
          "type": "string"
        },
        {
          "name": "_productImages",
          "type": "string[]"
        }
      ],
      "name": "updateProductInfo",
      "outputs": [],
      "payable": false,
      "stateMutability": "nonpayable",
      "type": "function"
    },
    {
      "constant": true,
      "inputs": [
        {
          "name": "_account",
          "type": "address"
        }
      ],
      "name": "viewParticipantInfo",
      "outputs": [
        {
          "components": [
            {
              "name": "account",
              "type": "address"
            },
            {
              "name": "givenPrice",
              "type": "uint256"
            },
            {
              "name": "deviation",
              "type": "uint256"
            }
          ],
          "name": "",
          "type": "tuple"
        }
      ],
      "payable": false,
      "stateMutability": "view",
      "type": "function"
    },
    {
      "constant": true,
      "inputs": [],
      "name": "getPricingSession",
      "outputs": [
        {
          "name": "",
          "type": "string"
        },
        {
          "name": "",
          "type": "string"
        },
        {
          "name": "",
          "type": "string[]"
        },
        {
          "name": "",
          "type": "uint256"
        },
        {
          "name": "",
          "type": "uint8"
        }
      ],
      "payable": false,
      "stateMutability": "view",
      "type": "function"
    }
  ],
  "bytecode": "0x60806040523480156200001157600080fd5b50604051620024f1380380620024f18339810180604052620000379190810190620006be565b836000806101000a81548173ffffffffffffffffffffffffffffffffffffffff021916908373ffffffffffffffffffffffffffffffffffffffff16021790555083600160006101000a81548173ffffffffffffffffffffffffffffffffffffffff021916908373ffffffffffffffffffffffffffffffffffffffff1602179055503373ffffffffffffffffffffffffffffffffffffffff16600160009054906101000a900473ffffffffffffffffffffffffffffffffffffffff1673ffffffffffffffffffffffffffffffffffffffff1663f851a4406040518163ffffffff167c0100000000000000000000000000000000000000000000000000000000028152600401602060405180830381600087803b1580156200015657600080fd5b505af11580156200016b573d6000803e3d6000fd5b505050506040513d601f19601f8201168201806040525062000191919081019062000692565b73ffffffffffffffffffffffffffffffffffffffff16141515620001b457600080fd5b8260026000019080519060200190620001cf92919062000327565b508160026001019080519060200190620001eb92919062000327565b508060028001908051906020019062000206929190620003ae565b506000600260040160006101000a81548160ff021916908360038111156200022a57fe5b021790555033600760006101000a81548173ffffffffffffffffffffffffffffffffffffffff021916908373ffffffffffffffffffffffffffffffffffffffff160217905550600160009054906101000a900473ffffffffffffffffffffffffffffffffffffffff1673ffffffffffffffffffffffffffffffffffffffff1663f390dd86306040518263ffffffff167c0100000000000000000000000000000000000000000000000000000000028152600401620002e9919062000786565b600060405180830381600087803b1580156200030457600080fd5b505af115801562000319573d6000803e3d6000fd5b5050505050505050620008ca565b828054600181600116156101000203166002900490600052602060002090601f016020900481019282601f106200036a57805160ff19168380011785556200039b565b828001600101855582156200039b579182015b828111156200039a5782518255916020019190600101906200037d565b5b509050620003aa919062000415565b5090565b82805482825590600052602060002090810192821562000402579160200282015b8281111562000401578251829080519060200190620003f09291906200043d565b5091602001919060010190620003cf565b5b509050620004119190620004c4565b5090565b6200043a91905b80821115620004365760008160009055506001016200041c565b5090565b90565b828054600181600116156101000203166002900490600052602060002090601f016020900481019282601f106200048057805160ff1916838001178555620004b1565b82800160010185558215620004b1579182015b82811115620004b057825182559160200191906001019062000493565b5b509050620004c0919062000415565b5090565b620004f291905b80821115620004ee5760008181620004e49190620004f5565b50600101620004cb565b5090565b90565b50805460018160011615610100020316600290046000825580601f106200051d57506200053e565b601f0160209004906000526020600020908101906200053d919062000415565b5b50565b60006200054f825162000874565b905092915050565b600082601f83011215156200056b57600080fd5b8151620005826200057c82620007d1565b620007a3565b9150818183526020840193506020810190508360005b83811015620005cc5781518601620005b18882620005d6565b84526020840193506020830192505060018101905062000598565b5050505092915050565b600082601f8301121515620005ea57600080fd5b815162000601620005fb82620007fa565b620007a3565b915080825260208301602083018583830111156200061e57600080fd5b6200062b83828462000894565b50505092915050565b600082601f83011215156200064857600080fd5b81516200065f620006598262000827565b620007a3565b915080825260208301602083018583830111156200067c57600080fd5b6200068983828462000894565b50505092915050565b600060208284031215620006a557600080fd5b6000620006b58482850162000541565b91505092915050565b60008060008060808587031215620006d557600080fd5b6000620006e58782880162000541565b945050602085015167ffffffffffffffff8111156200070357600080fd5b620007118782880162000634565b935050604085015167ffffffffffffffff8111156200072f57600080fd5b6200073d8782880162000634565b925050606085015167ffffffffffffffff8111156200075b57600080fd5b620007698782880162000557565b91505092959194509250565b620007808162000854565b82525050565b60006020820190506200079d600083018462000775565b92915050565b6000604051905081810181811067ffffffffffffffff82111715620007c757600080fd5b8060405250919050565b600067ffffffffffffffff821115620007e957600080fd5b602082029050602081019050919050565b600067ffffffffffffffff8211156200081257600080fd5b601f19601f8301169050602081019050919050565b600067ffffffffffffffff8211156200083f57600080fd5b601f19601f8301169050602081019050919050565b600073ffffffffffffffffffffffffffffffffffffffff82169050919050565b600073ffffffffffffffffffffffffffffffffffffffff82169050919050565b60005b83811015620008b457808201518184015260208101905062000897565b83811115620008c4576000848401525b50505050565b611c1780620008da6000396000f300608060405260043610610099576000357c0100000000000000000000000000000000000000000000000000000000900463ffffffff1680630c143b991461009e57806335c9b7bc146100cd5780633b64368d146100f65780639b3ef1ee146101335780639c3c2f7a1461014a578063ab848d0c14610161578063bb55f25c1461018a578063d270e7ab146101b3578063f851a440146101de575b600080fd5b3480156100aa57600080fd5b506100b3610209565b6040516100c495949392919061197c565b60405180910390f35b3480156100d957600080fd5b506100f460048036036100ef91908101906116cf565b610464565b005b34801561010257600080fd5b5061011d6004803603610118919081019061167d565b610512565b60405161012a91906119e4565b60405180910390f35b34801561013f57600080fd5b506101486105d6565b005b34801561015657600080fd5b5061015f6106bd565b005b34801561016d57600080fd5b5061018860048036036101839190810190611766565b6107d8565b005b34801561019657600080fd5b506101b160048036036101ac9190810190611766565b610bac565b005b3480156101bf57600080fd5b506101c861108c565b6040516101d59190611901565b60405180910390f35b3480156101ea57600080fd5b506101f36110b1565b6040516102009190611901565b60405180910390f35b60608060606000806002600001600260010160028001600260030154600260040160009054906101000a900460ff16848054600181600116156101000203166002900480601f0160208091040260200160405190810160405280929190818152602001828054600181600116156101000203166002900480156102cd5780601f106102a2576101008083540402835291602001916102cd565b820191906000526020600020905b8154815290600101906020018083116102b057829003601f168201915b50505050509450838054600181600116156101000203166002900480601f0160208091040260200160405190810160405280929190818152602001828054600181600116156101000203166002900480156103695780601f1061033e57610100808354040283529160200191610369565b820191906000526020600020905b81548152906001019060200180831161034c57829003601f168201915b5050505050935082805480602002602001604051908101604052809291908181526020016000905b8282101561044d578382906000526020600020018054600181600116156101000203166002900480601f0160208091040260200160405190810160405280929190818152602001828054600181600116156101000203166002900480156104395780601f1061040e57610100808354040283529160200191610439565b820191906000526020600020905b81548152906001019060200180831161041c57829003601f168201915b505050505081526020019060010190610391565b505050509250945094509450945094509091929394565b3373ffffffffffffffffffffffffffffffffffffffff16600760009054906101000a900473ffffffffffffffffffffffffffffffffffffffff1673ffffffffffffffffffffffffffffffffffffffff161415156104c057600080fd5b82600260000190805190602001906104d99291906112da565b5081600260010190805190602001906104f39291906112da565b508060028001908051906020019061050c92919061135a565b50505050565b61051a6113ba565b600960008373ffffffffffffffffffffffffffffffffffffffff1673ffffffffffffffffffffffffffffffffffffffff168152602001908152602001600020606060405190810160405290816000820160009054906101000a900473ffffffffffffffffffffffffffffffffffffffff1673ffffffffffffffffffffffffffffffffffffffff1673ffffffffffffffffffffffffffffffffffffffff168152602001600182015481526020016002820154815250509050919050565b3373ffffffffffffffffffffffffffffffffffffffff16600760009054906101000a900473ffffffffffffffffffffffffffffffffffffffff1673ffffffffffffffffffffffffffffffffffffffff1614151561063257600080fd5b6001600381111561063f57fe5b600260040160009054906101000a900460ff16600381111561065d57fe5b14151561066957600080fd5b60028060040160006101000a81548160ff0219169083600381111561068a57fe5b02179055507f2d14c593bf18e19181bac5f1510c7b7810adf097cfcb5739038f21491b929f5860405160405180910390a1565b3373ffffffffffffffffffffffffffffffffffffffff16600760009054906101000a900473ffffffffffffffffffffffffffffffffffffffff1673ffffffffffffffffffffffffffffffffffffffff1614151561071957600080fd5b6000600381111561072657fe5b600260040160009054906101000a900460ff16600381111561074457fe5b148061077857506002600381111561075857fe5b600260040160009054906101000a900460ff16600381111561077657fe5b145b151561078357600080fd5b6001600260040160006101000a81548160ff021916908360038111156107a557fe5b02179055507f1f2698abef4ef4096e07a6fbb78b56fe76953e9079ce5b9559ce4398defd412a60405160405180910390a1565b6000600160038111156107e757fe5b600260040160009054906101000a900460ff16600381111561080557fe5b14151561081157600080fd5b600160009054906101000a900473ffffffffffffffffffffffffffffffffffffffff1673ffffffffffffffffffffffffffffffffffffffff16633ad86db2336040518263ffffffff167c01000000000000000000000000000000000000000000000000000000000281526004016108889190611901565b602060405180830381600087803b1580156108a257600080fd5b505af11580156108b6573d6000803e3d6000fd5b505050506040513d601f19601f820116820180604052506108da91908101906116a6565b90508015156108e857600080fd5b600073ffffffffffffffffffffffffffffffffffffffff16600960003373ffffffffffffffffffffffffffffffffffffffff1673ffffffffffffffffffffffffffffffffffffffff16815260200190815260200160002060000160009054906101000a900473ffffffffffffffffffffffffffffffffffffffff1673ffffffffffffffffffffffffffffffffffffffff161415610b105733600960003373ffffffffffffffffffffffffffffffffffffffff1673ffffffffffffffffffffffffffffffffffffffff16815260200190815260200160002060000160006101000a81548173ffffffffffffffffffffffffffffffffffffffff021916908373ffffffffffffffffffffffffffffffffffffffff16021790555060083390806001815401808255809150509060018203906000526020600020016000909192909190916101000a81548173ffffffffffffffffffffffffffffffffffffffff021916908373ffffffffffffffffffffffffffffffffffffffff16021790555050600160009054906101000a900473ffffffffffffffffffffffffffffffffffffffff1673ffffffffffffffffffffffffffffffffffffffff16633d202a0d336040518263ffffffff167c0100000000000000000000000000000000000000000000000000000000028152600401610add9190611901565b600060405180830381600087803b158015610af757600080fd5b505af1158015610b0b573d6000803e3d6000fd5b505050505b81600960003373ffffffffffffffffffffffffffffffffffffffff1673ffffffffffffffffffffffffffffffffffffffff16815260200190815260200160002060010181905550610b5f6110d7565b6002600301819055507f95f9cba01b31eee2dec41e507ae6f6483f0f81fb706cfbc2bf7bfc14f7a7c73c3383600260030154604051610ba093929190611945565b60405180910390a15050565b6000806000806000806000803373ffffffffffffffffffffffffffffffffffffffff16600760009054906101000a900473ffffffffffffffffffffffffffffffffffffffff1673ffffffffffffffffffffffffffffffffffffffff16141515610c1457600080fd5b600380811115610c2057fe5b600260040160009054906101000a900460ff166003811115610c3e57fe5b14151515610c4b57600080fd5b6003600260040160006101000a81548160ff02191690836003811115610c6d57fe5b021790555088600260030181905550600097505b60088054905088101561104a576009600060088a815481101515610ca157fe5b9060005260206000200160009054906101000a900473ffffffffffffffffffffffffffffffffffffffff1673ffffffffffffffffffffffffffffffffffffffff1673ffffffffffffffffffffffffffffffffffffffff1681526020019081526020016000209650610d1787600101548a036112be565b95508894508460648702811515610d2a57fe5b049350838760020181905550600160009054906101000a900473ffffffffffffffffffffffffffffffffffffffff1673ffffffffffffffffffffffffffffffffffffffff16634534ede060088a815481101515610d8357fe5b9060005260206000200160009054906101000a900473ffffffffffffffffffffffffffffffffffffffff166040518263ffffffff167c0100000000000000000000000000000000000000000000000000000000028152600401610de69190611901565b602060405180830381600087803b158015610e0057600080fd5b505af1158015610e14573d6000803e3d6000fd5b505050506040513d601f19601f82011682018060405250610e38919081019061178f565b9250600160009054906101000a900473ffffffffffffffffffffffffffffffffffffffff1673ffffffffffffffffffffffffffffffffffffffff1663a33a08b960088a815481101515610e8757fe5b9060005260206000200160009054906101000a900473ffffffffffffffffffffffffffffffffffffffff166040518263ffffffff167c0100000000000000000000000000000000000000000000000000000000028152600401610eea9190611901565b602060405180830381600087803b158015610f0457600080fd5b505af1158015610f18573d6000803e3d6000fd5b505050506040513d601f19601f82011682018060405250610f3c919081019061178f565b9150838383020195506001830194508486811515610f5657fe5b049050600160009054906101000a900473ffffffffffffffffffffffffffffffffffffffff1673ffffffffffffffffffffffffffffffffffffffff1663d5c54bc460088a815481101515610fa657fe5b9060005260206000200160009054906101000a900473ffffffffffffffffffffffffffffffffffffffff16836040518363ffffffff167c010000000000000000000000000000000000000000000000000000000002815260040161100b92919061191c565b600060405180830381600087803b15801561102557600080fd5b505af1158015611039573d6000803e3d6000fd5b505050508780600101985050610c81565b7f1a29a00b21dee865c7bfcf603bef96b3ed0fbc07420de8e0dd5831ab0f0d44788960405161107991906119ff565b60405180910390a1505050505050505050565b6000809054906101000a900473ffffffffffffffffffffffffffffffffffffffff1681565b600760009054906101000a900473ffffffffffffffffffffffffffffffffffffffff1681565b60008060008060008060008060088054905096506000955060009450600093505b8684101561129e57600160009054906101000a900473ffffffffffffffffffffffffffffffffffffffff1673ffffffffffffffffffffffffffffffffffffffff1663a33a08b960088681548110151561114d57fe5b9060005260206000200160009054906101000a900473ffffffffffffffffffffffffffffffffffffffff166040518263ffffffff167c01000000000000000000000000000000000000000000000000000000000281526004016111b09190611901565b602060405180830381600087803b1580156111ca57600080fd5b505af11580156111de573d6000803e3d6000fd5b505050506040513d601f19601f82011682018060405250611202919081019061178f565b92506009600060088681548110151561121757fe5b9060005260206000200160009054906101000a900473ffffffffffffffffffffffffffffffffffffffff1673ffffffffffffffffffffffffffffffffffffffff1673ffffffffffffffffffffffffffffffffffffffff16815260200190815260200160002060010154915082606403820286019550828501945083806001019450506110f8565b848760640203868115156112ae57fe5b0490508097505050505050505090565b6000808210156112d157816000036112d3565b815b9050919050565b828054600181600116156101000203166002900490600052602060002090601f016020900481019282601f1061131b57805160ff1916838001178555611349565b82800160010185558215611349579182015b8281111561134857825182559160200191906001019061132d565b5b50905061135691906113f2565b5090565b8280548282559060005260206000209081019282156113a9579160200282015b828111156113a8578251829080519060200190611398929190611417565b509160200191906001019061137a565b5b5090506113b69190611497565b5090565b606060405190810160405280600073ffffffffffffffffffffffffffffffffffffffff16815260200160008152602001600081525090565b61141491905b808211156114105760008160009055506001016113f8565b5090565b90565b828054600181600116156101000203166002900490600052602060002090601f016020900481019282601f1061145857805160ff1916838001178555611486565b82800160010185558215611486579182015b8281111561148557825182559160200191906001019061146a565b5b50905061149391906113f2565b5090565b6114c091905b808211156114bc57600081816114b391906114c3565b5060010161149d565b5090565b90565b50805460018160011615610100020316600290046000825580601f106114e95750611508565b601f01602090049060005260206000209081019061150791906113f2565b5b50565b60006115178235611b42565b905092915050565b600082601f830112151561153257600080fd5b813561154561154082611a47565b611a1a565b9150818183526020840193506020810190508360005b8381101561158b578135860161157188826115a9565b84526020840193506020830192505060018101905061155b565b5050505092915050565b60006115a18251611b62565b905092915050565b600082601f83011215156115bc57600080fd5b81356115cf6115ca82611a6f565b611a1a565b915080825260208301602083018583830111156115eb57600080fd5b6115f6838284611b8a565b50505092915050565b600082601f830112151561161257600080fd5b813561162561162082611a9b565b611a1a565b9150808252602083016020830185838301111561164157600080fd5b61164c838284611b8a565b50505092915050565b60006116618235611b6e565b905092915050565b60006116758251611b6e565b905092915050565b60006020828403121561168f57600080fd5b600061169d8482850161150b565b91505092915050565b6000602082840312156116b857600080fd5b60006116c684828501611595565b91505092915050565b6000806000606084860312156116e457600080fd5b600084013567ffffffffffffffff8111156116fe57600080fd5b61170a868287016115ff565b935050602084013567ffffffffffffffff81111561172757600080fd5b611733868287016115ff565b925050604084013567ffffffffffffffff81111561175057600080fd5b61175c8682870161151f565b9150509250925092565b60006020828403121561177857600080fd5b600061178684828501611655565b91505092915050565b6000602082840312156117a157600080fd5b60006117af84828501611669565b91505092915050565b6117c181611b02565b82525050565b60006117d282611ad4565b808452602084019350836020820285016117eb85611ac7565b60005b8481101561182457838303885261180683835161187a565b925061181182611af5565b91506020880197506001810190506117ee565b508196508694505050505092915050565b61183e81611b78565b82525050565b600061184f82611aea565b808452611863816020860160208601611b99565b61186c81611bcc565b602085010191505092915050565b600061188582611adf565b808452611899816020860160208601611b99565b6118a281611bcc565b602085010191505092915050565b6060820160008201516118c660008501826117b8565b5060208201516118d960208501826118f2565b5060408201516118ec60408501826118f2565b50505050565b6118fb81611b38565b82525050565b600060208201905061191660008301846117b8565b92915050565b600060408201905061193160008301856117b8565b61193e60208301846118f2565b9392505050565b600060608201905061195a60008301866117b8565b61196760208301856118f2565b61197460408301846118f2565b949350505050565b600060a08201905081810360008301526119968188611844565b905081810360208301526119aa8187611844565b905081810360408301526119be81866117c7565b90506119cd60608301856118f2565b6119da6080830184611835565b9695505050505050565b60006060820190506119f960008301846118b0565b92915050565b6000602082019050611a1460008301846118f2565b92915050565b6000604051905081810181811067ffffffffffffffff82111715611a3d57600080fd5b8060405250919050565b600067ffffffffffffffff821115611a5e57600080fd5b602082029050602081019050919050565b600067ffffffffffffffff821115611a8657600080fd5b601f19601f8301169050602081019050919050565b600067ffffffffffffffff821115611ab257600080fd5b601f19601f8301169050602081019050919050565b6000602082019050919050565b600081519050919050565b600081519050919050565b600081519050919050565b6000602082019050919050565b600073ffffffffffffffffffffffffffffffffffffffff82169050919050565b6000600482101515611b3057fe5b819050919050565b6000819050919050565b600073ffffffffffffffffffffffffffffffffffffffff82169050919050565b60008115159050919050565b6000819050919050565b6000611b8382611b22565b9050919050565b82818337600083830152505050565b60005b83811015611bb7578082015181840152602081019050611b9c565b83811115611bc6576000848401525b50505050565b6000601f19601f83011690509190505600a265627a7a72305820ed1476747e83c3f924ff51fd836c39d4255ae41f8d1e10d5dd4e552ba9c677da6c6578706572696d656e74616cf50037",
  "source": "pragma solidity ^0.4.17;\npragma experimental ABIEncoderV2;\nimport './Main.sol';\n\n\ncontract Session {\n    // Variable to hold Main Contract Address when create new Session Contract\n    address public mainContract;\n    // Variable to hold Main Contract instance to call functions from Main\n    Main MainContract;\n    enum SessionState{created, started, stoped, closed}\n\n    // TODO: Variables\n    struct IPricingSession{\n        string name;\n        string description;\n        string[] images;\n        uint256 proposedPrice;\n        SessionState state;\n    }\n\n    struct ISessionParticipant{\n        address account;\n        uint256 givenPrice;\n        uint256 deviation;\n    }\n\n    IPricingSession private pricingSession;\n    address public admin;\n    address[] private participantAccounts;\n    mapping(address => ISessionParticipant) sessionParticipant;\n    \n\n    modifier onlyAdmin(){\n        require(admin == msg.sender);\n        _;\n    }\n\n    event started();\n    event stoped();\n    event givenPriceUpdated(address account, uint256 givenPrice, uint256 proposedPrice);\n    event finalPriceUpdated (uint256 finalPrice);\n\n\n    function Session(address _mainContract, string _productName, string _productDescription, string[] memory _productImages\n        // Other arguments\n    ) public {\n\n        // Get Main Contract instance\n        mainContract = _mainContract;\n         MainContract =  Main(_mainContract);\n        \n        // TODO: Init Session contract\n        require (MainContract.admin() == msg.sender);\n\n        pricingSession.name = _productName;\n        pricingSession.description = _productDescription;\n        pricingSession.images = _productImages;\n        pricingSession.state = SessionState.created;\n\n        admin = msg.sender;\n\n        \n        // Call Main Contract function to link current contract.\n        MainContract.addSession(address(this));\n    }\n\n    // TODO: Functions\n    function startPricingSession() onlyAdmin() public{\n        require(pricingSession.state == SessionState.created || pricingSession.state == SessionState.stoped);\n\n        pricingSession.state = SessionState.started;\n        emit started();\n    }\n\n    function stopPricingSession() onlyAdmin() public{\n        require(pricingSession.state == SessionState.started);\n\n        pricingSession.state = SessionState.stoped;\n        emit stoped();\n    }\n\n    function setGivenPrice(uint256 _price) public{\n        require(pricingSession.state == SessionState.started);\n\n        bool isRegisted = MainContract.checkRegisterAccount(msg.sender);\n        require (isRegisted);\n\n        // update participant\n        if(sessionParticipant[msg.sender].account == address(0)){\n            sessionParticipant[msg.sender].account = msg.sender;\n\n            participantAccounts.push(msg.sender);\n\n            MainContract.updateSessionNumber(msg.sender);\n        }\n            \n        sessionParticipant[msg.sender].givenPrice = _price;\n        \n        pricingSession.proposedPrice = calculatePrice();\n\n        emit givenPriceUpdated(msg.sender, _price, pricingSession.proposedPrice);\n    }\n\n    function setFinalPrice(uint256 _price) onlyAdmin public{\n        require(pricingSession.state != SessionState.closed);\n\n        pricingSession.state = SessionState.closed;\n        pricingSession.proposedPrice = _price;\n\n        for(uint256 i = 0; i < participantAccounts.length; i++){\n            // in session\n            ISessionParticipant storage itemParticipant = sessionParticipant[participantAccounts[i]];\n                      \n            uint256 numerator = abs(_price - itemParticipant.givenPrice);\n            uint256 denominator = _price;\n\n            uint256 deviation = numerator  * 100 / denominator;\n            itemParticipant.deviation = deviation;\n\n            // in main\n            uint256 sessionNumber = MainContract.getSessionNumber(participantAccounts[i]);           \n            uint256 deviationCurrent = MainContract.getDeviation(participantAccounts[i]);\n\n            numerator = deviationCurrent * sessionNumber + deviation;\n            denominator = sessionNumber + 1;\n\n            uint256 newDeviation = numerator / denominator;\n            MainContract.updateDeviation(participantAccounts[i], newDeviation);\n        }\n\n        \n        emit finalPriceUpdated(_price);\n    }\n\n    function abs(uint256 x) private pure returns (uint256) {\n        return x >= 0 ? x : -x;\n    }\n\n    function calculatePrice() private returns(uint256){\n        uint256 n = participantAccounts.length;\n        uint256 numerator = 0;\n        uint256 denominator = 0;\n\n        for(uint256 i = 0; i < n; i++){\n            uint256 deviation = MainContract.getDeviation(participantAccounts[i]);\n            uint256 pGivenPrice = sessionParticipant[participantAccounts[i]].givenPrice;\n\n            numerator += (pGivenPrice * (100 - deviation));\n            denominator += deviation;\n        }    \n\n        uint256 proposedPrice = numerator / ((100 * n) - denominator);\n        return proposedPrice;\n    }\n\n    function updateProductInfo(string _productName, string _productDescription, string[] memory _productImages) onlyAdmin() public{\n        pricingSession.name = _productName;\n        pricingSession.description = _productDescription;\n        pricingSession.images = _productImages;\n    }\n\n    function viewParticipantInfo(address _account) view public returns (ISessionParticipant){\n        return sessionParticipant[_account];\n    }\n\n    function getPricingSession() view public returns(string memory, string memory, string[] memory, uint256, SessionState) {\n        return (pricingSession.name, pricingSession.description, pricingSession.images, pricingSession.proposedPrice, pricingSession.state);\n    }\n}\n",
  "sourcePath": "D:\\Learning\\Blockchain-Funix\\_FunixPricingChain\\truffle\\contracts\\Session.sol",
  "compiler": {
    "name": "solc",
    "version": "0.4.26+commit.4563c3fc.Emscripten.clang"
  },
  "schemaVersion": "3.4.4",
  "updatedAt": "2022-07-16T05:52:42.547Z",
  "devdoc": {
    "methods": {}
  },
  "userdoc": {
    "methods": {}
  }
}